{
  "_format": "hh-sol-artifact-1",
  "contractName": "SubsCrypt",
  "sourceName": "contracts/SubsCrypt.sol",
  "abi": [
    {
      "inputs": [
        {
          "internalType": "address",
          "name": "_currencyToken",
          "type": "address"
        }
      ],
      "stateMutability": "nonpayable",
      "type": "constructor"
    },
    {
      "inputs": [
        {
          "internalType": "address",
          "name": "owner",
          "type": "address"
        }
      ],
      "name": "OwnableInvalidOwner",
      "type": "error"
    },
    {
      "inputs": [
        {
          "internalType": "address",
          "name": "account",
          "type": "address"
        }
      ],
      "name": "OwnableUnauthorizedAccount",
      "type": "error"
    },
    {
      "anonymous": false,
      "inputs": [
        {
          "indexed": true,
          "internalType": "uint256",
          "name": "serviceId",
          "type": "uint256"
        },
        {
          "indexed": true,
          "internalType": "uint256",
          "name": "amount",
          "type": "uint256"
        }
      ],
      "name": "FundsCollectedByProvider",
      "type": "event"
    },
    {
      "anonymous": false,
      "inputs": [
        {
          "indexed": true,
          "internalType": "address",
          "name": "previousOwner",
          "type": "address"
        },
        {
          "indexed": true,
          "internalType": "address",
          "name": "newOwner",
          "type": "address"
        }
      ],
      "name": "OwnershipTransferred",
      "type": "event"
    },
    {
      "anonymous": false,
      "inputs": [
        {
          "indexed": true,
          "internalType": "address",
          "name": "provider",
          "type": "address"
        },
        {
          "indexed": true,
          "internalType": "uint256",
          "name": "serviceId",
          "type": "uint256"
        },
        {
          "indexed": false,
          "internalType": "uint256",
          "name": "price",
          "type": "uint256"
        },
        {
          "indexed": false,
          "internalType": "uint256",
          "name": "renewalPeriod",
          "type": "uint256"
        }
      ],
      "name": "ServiceRegistered",
      "type": "event"
    },
    {
      "anonymous": false,
      "inputs": [
        {
          "indexed": true,
          "internalType": "address",
          "name": "subscriber",
          "type": "address"
        },
        {
          "indexed": true,
          "internalType": "uint256",
          "name": "serviceId",
          "type": "uint256"
        },
        {
          "indexed": true,
          "internalType": "uint256",
          "name": "subscriptionId",
          "type": "uint256"
        }
      ],
      "name": "Subscribed",
      "type": "event"
    },
    {
      "anonymous": false,
      "inputs": [
        {
          "indexed": true,
          "internalType": "uint256",
          "name": "serviceId",
          "type": "uint256"
        },
        {
          "indexed": true,
          "internalType": "uint256",
          "name": "amount",
          "type": "uint256"
        },
        {
          "indexed": true,
          "internalType": "uint256",
          "name": "fee",
          "type": "uint256"
        }
      ],
      "name": "SubscriptionProcesses",
      "type": "event"
    },
    {
      "inputs": [
        {
          "internalType": "uint256",
          "name": "",
          "type": "uint256"
        }
      ],
      "name": "AllServices",
      "outputs": [
        {
          "internalType": "address",
          "name": "provider",
          "type": "address"
        },
        {
          "internalType": "uint256",
          "name": "price",
          "type": "uint256"
        },
        {
          "internalType": "uint256",
          "name": "renewalPeriod",
          "type": "uint256"
        },
        {
          "internalType": "bool",
          "name": "isActive",
          "type": "bool"
        }
      ],
      "stateMutability": "view",
      "type": "function"
    },
    {
      "inputs": [
        {
          "internalType": "uint256",
          "name": "",
          "type": "uint256"
        }
      ],
      "name": "AllSubscriptions",
      "outputs": [
        {
          "internalType": "address",
          "name": "subscriber",
          "type": "address"
        },
        {
          "internalType": "uint256",
          "name": "serviceId",
          "type": "uint256"
        },
        {
          "internalType": "uint256",
          "name": "nextRenewal",
          "type": "uint256"
        },
        {
          "internalType": "bool",
          "name": "isActive",
          "type": "bool"
        }
      ],
      "stateMutability": "view",
      "type": "function"
    },
    {
      "inputs": [],
      "name": "CURRENCY_TOKEN",
      "outputs": [
        {
          "internalType": "address",
          "name": "",
          "type": "address"
        }
      ],
      "stateMutability": "view",
      "type": "function"
    },
    {
      "inputs": [
        {
          "internalType": "address",
          "name": "",
          "type": "address"
        },
        {
          "internalType": "uint256",
          "name": "",
          "type": "uint256"
        }
      ],
      "name": "MyServices",
      "outputs": [
        {
          "internalType": "uint256",
          "name": "",
          "type": "uint256"
        }
      ],
      "stateMutability": "view",
      "type": "function"
    },
    {
      "inputs": [
        {
          "internalType": "address",
          "name": "",
          "type": "address"
        },
        {
          "internalType": "uint256",
          "name": "",
          "type": "uint256"
        }
      ],
      "name": "MySubscriptions",
      "outputs": [
        {
          "internalType": "uint256",
          "name": "",
          "type": "uint256"
        }
      ],
      "stateMutability": "view",
      "type": "function"
    },
    {
      "inputs": [
        {
          "internalType": "uint256",
          "name": "subscriptionId",
          "type": "uint256"
        }
      ],
      "name": "activateSubscription",
      "outputs": [],
      "stateMutability": "nonpayable",
      "type": "function"
    },
    {
      "inputs": [
        {
          "internalType": "uint256",
          "name": "serviceId",
          "type": "uint256"
        }
      ],
      "name": "collectFundsFromMyService",
      "outputs": [],
      "stateMutability": "nonpayable",
      "type": "function"
    },
    {
      "inputs": [
        {
          "internalType": "uint256",
          "name": "serviceId",
          "type": "uint256"
        }
      ],
      "name": "deactivateService",
      "outputs": [],
      "stateMutability": "nonpayable",
      "type": "function"
    },
    {
      "inputs": [
        {
          "internalType": "uint256",
          "name": "subscriptionId",
          "type": "uint256"
        }
      ],
      "name": "deactivateSubscription",
      "outputs": [],
      "stateMutability": "nonpayable",
      "type": "function"
    },
    {
      "inputs": [],
      "name": "feeCollected",
      "outputs": [
        {
          "internalType": "uint256",
          "name": "",
          "type": "uint256"
        }
      ],
      "stateMutability": "view",
      "type": "function"
    },
    {
      "inputs": [
        {
          "internalType": "uint256",
          "name": "serviceId",
          "type": "uint256"
        }
      ],
      "name": "getActiveSubscriberCount",
      "outputs": [
        {
          "internalType": "uint256",
          "name": "count",
          "type": "uint256"
        }
      ],
      "stateMutability": "view",
      "type": "function"
    },
    {
      "inputs": [
        {
          "internalType": "uint256",
          "name": "serviceId",
          "type": "uint256"
        }
      ],
      "name": "getActiveSubscribersOf",
      "outputs": [
        {
          "internalType": "address[]",
          "name": "",
          "type": "address[]"
        }
      ],
      "stateMutability": "view",
      "type": "function"
    },
    {
      "inputs": [
        {
          "internalType": "address",
          "name": "_provider",
          "type": "address"
        }
      ],
      "name": "getAllMyServiceIds",
      "outputs": [
        {
          "internalType": "uint256[]",
          "name": "",
          "type": "uint256[]"
        }
      ],
      "stateMutability": "view",
      "type": "function"
    },
    {
      "inputs": [
        {
          "internalType": "address",
          "name": "_subscriber",
          "type": "address"
        }
      ],
      "name": "getAllMySubscriptionIds",
      "outputs": [
        {
          "internalType": "uint256[]",
          "name": "",
          "type": "uint256[]"
        }
      ],
      "stateMutability": "view",
      "type": "function"
    },
    {
      "inputs": [
        {
          "internalType": "uint256",
          "name": "serviceId",
          "type": "uint256"
        }
      ],
      "name": "getCollectableFundsOf",
      "outputs": [
        {
          "internalType": "uint256",
          "name": "collectableFunds",
          "type": "uint256"
        }
      ],
      "stateMutability": "view",
      "type": "function"
    },
    {
      "inputs": [
        {
          "internalType": "address",
          "name": "subscriber",
          "type": "address"
        },
        {
          "internalType": "uint256",
          "name": "serviceId",
          "type": "uint256"
        }
      ],
      "name": "getSubscription",
      "outputs": [
        {
          "internalType": "uint256",
          "name": "subscriptionId",
          "type": "uint256"
        },
        {
          "internalType": "uint256",
          "name": "nextRenewal",
          "type": "uint256"
        },
        {
          "internalType": "bool",
          "name": "isActive",
          "type": "bool"
        }
      ],
      "stateMutability": "view",
      "type": "function"
    },
    {
      "inputs": [
        {
          "internalType": "address",
          "name": "_provider",
          "type": "address"
        }
      ],
      "name": "getTotalServicesOf",
      "outputs": [
        {
          "internalType": "uint256",
          "name": "",
          "type": "uint256"
        }
      ],
      "stateMutability": "view",
      "type": "function"
    },
    {
      "inputs": [
        {
          "internalType": "uint256",
          "name": "serviceId",
          "type": "uint256"
        }
      ],
      "name": "getTotalSubscribersOf",
      "outputs": [
        {
          "internalType": "uint256",
          "name": "",
          "type": "uint256"
        }
      ],
      "stateMutability": "view",
      "type": "function"
    },
    {
      "inputs": [
        {
          "internalType": "address",
          "name": "_subscriber",
          "type": "address"
        }
      ],
      "name": "getTotalSubscriptionsOf",
      "outputs": [
        {
          "internalType": "uint256",
          "name": "",
          "type": "uint256"
        }
      ],
      "stateMutability": "view",
      "type": "function"
    },
    {
      "inputs": [
        {
          "internalType": "uint256",
          "name": "serviceId",
          "type": "uint256"
        },
        {
          "internalType": "address",
          "name": "subscriber",
          "type": "address"
        }
      ],
      "name": "isSubscribedTo",
      "outputs": [
        {
          "internalType": "bool",
          "name": "",
          "type": "bool"
        }
      ],
      "stateMutability": "view",
      "type": "function"
    },
    {
      "inputs": [],
      "name": "owner",
      "outputs": [
        {
          "internalType": "address",
          "name": "",
          "type": "address"
        }
      ],
      "stateMutability": "view",
      "type": "function"
    },
    {
      "inputs": [
        {
          "internalType": "uint256[]",
          "name": "serviceIds",
          "type": "uint256[]"
        }
      ],
      "name": "processMultipleServices",
      "outputs": [],
      "stateMutability": "nonpayable",
      "type": "function"
    },
    {
      "inputs": [
        {
          "internalType": "uint256",
          "name": "serviceId",
          "type": "uint256"
        }
      ],
      "name": "processSubscriptionsByService",
      "outputs": [],
      "stateMutability": "nonpayable",
      "type": "function"
    },
    {
      "inputs": [
        {
          "internalType": "uint256",
          "name": "price",
          "type": "uint256"
        },
        {
          "internalType": "uint256",
          "name": "renewalPeriod",
          "type": "uint256"
        }
      ],
      "name": "registerNewService",
      "outputs": [],
      "stateMutability": "nonpayable",
      "type": "function"
    },
    {
      "inputs": [],
      "name": "renounceOwnership",
      "outputs": [],
      "stateMutability": "nonpayable",
      "type": "function"
    },
    {
      "inputs": [
        {
          "internalType": "uint256",
          "name": "serviceId",
          "type": "uint256"
        }
      ],
      "name": "subscribeTo",
      "outputs": [],
      "stateMutability": "payable",
      "type": "function"
    },
    {
      "inputs": [],
      "name": "totalServices",
      "outputs": [
        {
          "internalType": "uint256",
          "name": "",
          "type": "uint256"
        }
      ],
      "stateMutability": "view",
      "type": "function"
    },
    {
      "inputs": [],
      "name": "totalSubscriptions",
      "outputs": [
        {
          "internalType": "uint256",
          "name": "",
          "type": "uint256"
        }
      ],
      "stateMutability": "view",
      "type": "function"
    },
    {
      "inputs": [
        {
          "internalType": "address",
          "name": "newOwner",
          "type": "address"
        }
      ],
      "name": "transferOwnership",
      "outputs": [],
      "stateMutability": "nonpayable",
      "type": "function"
    },
    {
      "inputs": [
        {
          "internalType": "address",
          "name": "_receiver",
          "type": "address"
        }
      ],
      "name": "withdrawFee",
      "outputs": [],
      "stateMutability": "nonpayable",
      "type": "function"
    }
  ],
  "bytecode": "0x60806040523480156200001157600080fd5b50604051620039b5380380620039b5833981810160405281019062000037919062000236565b33600073ffffffffffffffffffffffffffffffffffffffff168173ffffffffffffffffffffffffffffffffffffffff1603620000ad5760006040517f1e4fbdf7000000000000000000000000000000000000000000000000000000008152600401620000a4919062000279565b60405180910390fd5b620000be816200010660201b60201c565b50806000806101000a81548173ffffffffffffffffffffffffffffffffffffffff021916908373ffffffffffffffffffffffffffffffffffffffff1602179055505062000296565b6000600860009054906101000a900473ffffffffffffffffffffffffffffffffffffffff16905081600860006101000a81548173ffffffffffffffffffffffffffffffffffffffff021916908373ffffffffffffffffffffffffffffffffffffffff1602179055508173ffffffffffffffffffffffffffffffffffffffff168173ffffffffffffffffffffffffffffffffffffffff167f8be0079c531659141344cd1fd0a4f28419497f9722a3daafe3b4186f6b6457e060405160405180910390a35050565b600080fd5b600073ffffffffffffffffffffffffffffffffffffffff82169050919050565b6000620001fe82620001d1565b9050919050565b6200021081620001f1565b81146200021c57600080fd5b50565b600081519050620002308162000205565b92915050565b6000602082840312156200024f576200024e620001cc565b5b60006200025f848285016200021f565b91505092915050565b6200027381620001f1565b82525050565b600060208201905062000290600083018462000268565b92915050565b61370f80620002a66000396000f3fe6080604052600436106101cd5760003560e01c8063715018a6116100f7578063b541fb7511610095578063ec9c321211610064578063ec9c3212146106f3578063edb2272d1461071c578063f2fde38b14610745578063f6cd11161461076e576101cd565b8063b541fb7514610611578063c2edf2331461064e578063d3f9509e1461068b578063e72531c8146106c8576101cd565b80638da5cb5b116100d15780638da5cb5b1461052c57806396c7d4c414610557578063a75d7e8614610594578063aa1c61a7146105d4576101cd565b8063715018a6146104af5780637f81e207146104c6578063806a9467146104ef576101cd565b80633ae9a18e1161016f5780636923e8851161013e5780636923e885146103f55780636b1245f71461041e5780636ca7f95c1461045b57806371094ee714610486576101cd565b80633ae9a18e1461032257806345d8f7b51461036157806362f567a8146103a15780636301ac8f146103ca576101cd565b80631ac3ddeb116101ab5780631ac3ddeb146102635780631bfc67151461028c5780633223ae74146102a857806338a2ca4d146102e5576101cd565b806309cb95c2146101d25780631328b870146101fb578063146bca3714610226575b600080fd5b3480156101de57600080fd5b506101f960048036038101906101f49190612a41565b6107ab565b005b34801561020757600080fd5b50610210610b87565b60405161021d9190612a7d565b60405180910390f35b34801561023257600080fd5b5061024d60048036038101906102489190612af6565b610b8d565b60405161025a9190612b51565b60405180910390f35b34801561026f57600080fd5b5061028a60048036038101906102859190612b6c565b610c78565b005b6102a660048036038101906102a19190612a41565b610d2e565b005b3480156102b457600080fd5b506102cf60048036038101906102ca9190612b99565b61108f565b6040516102dc9190612a7d565b60405180910390f35b3480156102f157600080fd5b5061030c60048036038101906103079190612b99565b6110c0565b6040516103199190612a7d565b60405180910390f35b34801561032e57600080fd5b5061034960048036038101906103449190612b99565b6110f1565b60405161035893929190612bd9565b60405180910390f35b34801561036d57600080fd5b5061038860048036038101906103839190612a41565b6112db565b6040516103989493929190612c1f565b60405180910390f35b3480156103ad57600080fd5b506103c860048036038101906103c39190612a41565b611338565b005b3480156103d657600080fd5b506103df611759565b6040516103ec9190612a7d565b60405180910390f35b34801561040157600080fd5b5061041c60048036038101906104179190612dbd565b61175f565b005b34801561042a57600080fd5b5061044560048036038101906104409190612a41565b6117ad565b6040516104529190612ec4565b60405180910390f35b34801561046757600080fd5b50610470611b36565b60405161047d9190612a7d565b60405180910390f35b34801561049257600080fd5b506104ad60048036038101906104a89190612ee6565b611b3c565b005b3480156104bb57600080fd5b506104c4611d25565b005b3480156104d257600080fd5b506104ed60048036038101906104e89190612a41565b611d39565b005b3480156104fb57600080fd5b5061051660048036038101906105119190612b6c565b611e68565b6040516105239190612fe4565b60405180910390f35b34801561053857600080fd5b50610541611eff565b60405161054e9190613006565b60405180910390f35b34801561056357600080fd5b5061057e60048036038101906105799190612a41565b611f29565b60405161058b9190612a7d565b60405180910390f35b3480156105a057600080fd5b506105bb60048036038101906105b69190612a41565b612174565b6040516105cb9493929190612c1f565b60405180910390f35b3480156105e057600080fd5b506105fb60048036038101906105f69190612a41565b6121d1565b6040516106089190612a7d565b60405180910390f35b34801561061d57600080fd5b5061063860048036038101906106339190612b6c565b6121f4565b6040516106459190612a7d565b60405180910390f35b34801561065a57600080fd5b5061067560048036038101906106709190612b6c565b612240565b6040516106829190612a7d565b60405180910390f35b34801561069757600080fd5b506106b260048036038101906106ad9190612b6c565b61228c565b6040516106bf9190612fe4565b60405180910390f35b3480156106d457600080fd5b506106dd612323565b6040516106ea9190613006565b60405180910390f35b3480156106ff57600080fd5b5061071a60048036038101906107159190612a41565b612347565b005b34801561072857600080fd5b50610743600480360381019061073e9190612a41565b612476565b005b34801561075157600080fd5b5061076c60048036038101906107679190612b6c565b612613565b005b34801561077a57600080fd5b5061079560048036038101906107909190612a41565b612699565b6040516107a29190612a7d565b60405180910390f35b803373ffffffffffffffffffffffffffffffffffffffff166001600083815260200190815260200160002060000160009054906101000a900473ffffffffffffffffffffffffffffffffffffffff1673ffffffffffffffffffffffffffffffffffffffff1614610850576040517f08c379a0000000000000000000000000000000000000000000000000000000008152600401610847906130a4565b60405180910390fd5b6000600160008481526020019081526020016000206040518060a00160405290816000820160009054906101000a900473ffffffffffffffffffffffffffffffffffffffff1673ffffffffffffffffffffffffffffffffffffffff1673ffffffffffffffffffffffffffffffffffffffff16815260200160018201548152602001600282015481526020016003820180548060200260200160405190810160405280929190818152602001828054801561092957602002820191906000526020600020905b815481526020019060010190808311610915575b505050505081526020016004820160009054906101000a900460ff16151515158152505090508060800151610993576040517f08c379a000000000000000000000000000000000000000000000000000000000815260040161098a90613110565b60405180910390fd5b600080600090505b826060015151811015610b5257600060026000856060015184815181106109c5576109c4613130565b5b6020026020010151815260200190815260200160002090508060030160009054906101000a900460ff1680156109fe5750428160020154105b15610b3e5760008460400151826002015442610a1a919061318e565b610a2491906131f1565b90506000818660200151610a389190613222565b90508085610a469190613264565b9450856040015182610a589190613222565b836002016000828254610a6b9190613264565b9250508190555060008054906101000a900473ffffffffffffffffffffffffffffffffffffffff1673ffffffffffffffffffffffffffffffffffffffff166323b872dd8460000160009054906101000a900473ffffffffffffffffffffffffffffffffffffffff168860000151846040518463ffffffff1660e01b8152600401610af793929190613298565b6020604051808303816000875af1158015610b16573d6000803e3d6000fd5b505050506040513d601f19601f82011682018060405250810190610b3a91906132fb565b5050505b508080610b4a90613328565b91505061099b565b5080847fa64f5958914de5935238a52a0ead17aa278b4315d8e7ea356848ba1b48d5f00460405160405180910390a350505050565b60035481565b600080600760008473ffffffffffffffffffffffffffffffffffffffff1673ffffffffffffffffffffffffffffffffffffffff168152602001908152602001600020805480602002602001604051908101604052809291908181526020018280548015610c1957602002820191906000526020600020905b815481526020019060010190808311610c05575b5050505050905060005b8151811015610c6b57818181518110610c3f57610c3e613130565b5b60200260200101518503610c5857600192505050610c72565b8080610c6390613328565b915050610c23565b5060009150505b92915050565b610c806128a2565b60008054906101000a900473ffffffffffffffffffffffffffffffffffffffff1673ffffffffffffffffffffffffffffffffffffffff166323b872dd30836005546040518463ffffffff1660e01b8152600401610cdf93929190613298565b6020604051808303816000875af1158015610cfe573d6000803e3d6000fd5b505050506040513d601f19601f82011682018060405250810190610d2291906132fb565b50600060058190555050565b60006001600083815260200190815260200160002090508060040160009054906101000a900460ff16610d96576040517f08c379a0000000000000000000000000000000000000000000000000000000008152600401610d8d906133bc565b60405180910390fd5b610da08233610b8d565b15610de0576040517f08c379a0000000000000000000000000000000000000000000000000000000008152600401610dd790613428565b60405180910390fd5b60008054906101000a900473ffffffffffffffffffffffffffffffffffffffff1673ffffffffffffffffffffffffffffffffffffffff166323b872dd338360000160009054906101000a900473ffffffffffffffffffffffffffffffffffffffff1684600101546040518463ffffffff1660e01b8152600401610e6593929190613298565b6020604051808303816000875af1158015610e84573d6000803e3d6000fd5b505050506040513d601f19601f82011682018060405250810190610ea891906132fb565b5060405180608001604052803373ffffffffffffffffffffffffffffffffffffffff168152602001838152602001826002015442610ee69190613264565b81526020016001151581525060026000600354815260200190815260200160002060008201518160000160006101000a81548173ffffffffffffffffffffffffffffffffffffffff021916908373ffffffffffffffffffffffffffffffffffffffff160217905550602082015181600101556040820151816002015560608201518160030160006101000a81548160ff021916908315150217905550905050600760003373ffffffffffffffffffffffffffffffffffffffff1673ffffffffffffffffffffffffffffffffffffffff16815260200190815260200160002060035490806001815401808255809150506001900390600052602060002001600090919091909150556001600083815260200190815260200160002060030160035490806001815401808255809150506001900390600052602060002001600090919091909150556003600081548092919061103f90613328565b9190505550600354823373ffffffffffffffffffffffffffffffffffffffff167ff94991dcbea6e8ac439cbc93bd9c62a4d39f04e0ad656df9a703f13552c2787f60405160405180910390a45050565b600760205281600052604060002081815481106110ab57600080fd5b90600052602060002001600091509150505481565b600660205281600052604060002081815481106110dc57600080fd5b90600052602060002001600091509150505481565b600080600080600760008773ffffffffffffffffffffffffffffffffffffffff1673ffffffffffffffffffffffffffffffffffffffff16815260200190815260200160002080548060200260200160405190810160405280929190818152602001828054801561118057602002820191906000526020600020905b81548152602001906001019080831161116c575b5050505050905060005b81518110156112d157600260008383815181106111aa576111a9613130565b5b602002602001015181526020019081526020016000206001015486036112be576000600260008484815181106111e3576111e2613130565b5b602002602001015181526020019081526020016000206040518060800160405290816000820160009054906101000a900473ffffffffffffffffffffffffffffffffffffffff1673ffffffffffffffffffffffffffffffffffffffff1673ffffffffffffffffffffffffffffffffffffffff16815260200160018201548152602001600282015481526020016003820160009054906101000a900460ff161515151581525050905082828151811061129e5761129d613130565b5b6020026020010151816040015182606001519550955095505050506112d4565b80806112c990613328565b91505061118a565b50505b9250925092565b60026020528060005260406000206000915090508060000160009054906101000a900473ffffffffffffffffffffffffffffffffffffffff16908060010154908060020154908060030160009054906101000a900460ff16905084565b6113406128a2565b6000600160008381526020019081526020016000206040518060a00160405290816000820160009054906101000a900473ffffffffffffffffffffffffffffffffffffffff1673ffffffffffffffffffffffffffffffffffffffff1673ffffffffffffffffffffffffffffffffffffffff16815260200160018201548152602001600282015481526020016003820180548060200260200160405190810160405280929190818152602001828054801561141957602002820191906000526020600020905b815481526020019060010190808311611405575b505050505081526020016004820160009054906101000a900460ff16151515158152505090508060800151611483576040517f08c379a000000000000000000000000000000000000000000000000000000000815260040161147a90613110565b60405180910390fd5b600080600090505b82606001515181101561163e57600060026000856060015184815181106114b5576114b4613130565b5b6020026020010151815260200190815260200160002090508060030160009054906101000a900460ff1680156114ee5750428160020154105b1561162a576000846040015182600201544261150a919061318e565b61151491906131f1565b905060008186602001516115289190613222565b905080856115369190613264565b94508560400151826115489190613222565b83600201600082825461155b9190613264565b9250508190555060008054906101000a900473ffffffffffffffffffffffffffffffffffffffff1673ffffffffffffffffffffffffffffffffffffffff166323b872dd8460000160009054906101000a900473ffffffffffffffffffffffffffffffffffffffff1630846040518463ffffffff1660e01b81526004016115e393929190613298565b6020604051808303816000875af1158015611602573d6000803e3d6000fd5b505050506040513d601f19601f8201168201806040525081019061162691906132fb565b5050505b50808061163690613328565b91505061148b565b50600060648261164e91906131f1565b905080600560008282546116629190613264565b9250508190555060008054906101000a900473ffffffffffffffffffffffffffffffffffffffff1673ffffffffffffffffffffffffffffffffffffffff166323b872dd30856000015184866116b7919061318e565b6040518463ffffffff1660e01b81526004016116d593929190613298565b6020604051808303816000875af11580156116f4573d6000803e3d6000fd5b505050506040513d601f19601f8201168201806040525081019061171891906132fb565b50808183611726919061318e565b857fe08e3ed33e519ebd9af9b3e5aa128810d4e554d8c08b8b703e5a3488cedaf06960405160405180910390a450505050565b60045481565b6117676128a2565b60005b81518110156117a95761179682828151811061178957611788613130565b5b6020026020010151611338565b80806117a190613328565b91505061176a565b5050565b60606000600160008481526020019081526020016000206040518060a00160405290816000820160009054906101000a900473ffffffffffffffffffffffffffffffffffffffff1673ffffffffffffffffffffffffffffffffffffffff1673ffffffffffffffffffffffffffffffffffffffff16815260200160018201548152602001600282015481526020016003820180548060200260200160405190810160405280929190818152602001828054801561188857602002820191906000526020600020905b815481526020019060010190808311611874575b505050505081526020016004820160009054906101000a900460ff1615151515815250509050600081606001515167ffffffffffffffff8111156118cf576118ce612c7a565b5b6040519080825280602002602001820160405280156118fd5781602001602082028036833780820191505090505b5090506000805b836060015151811015611a55576000600260008660600151848151811061192e5761192d613130565b5b602002602001015181526020019081526020016000206040518060800160405290816000820160009054906101000a900473ffffffffffffffffffffffffffffffffffffffff1673ffffffffffffffffffffffffffffffffffffffff1673ffffffffffffffffffffffffffffffffffffffff16815260200160018201548152602001600282015481526020016003820160009054906101000a900460ff1615151515815250509050806060015115611a415780600001518484815181106119f8576119f7613130565b5b602002602001019073ffffffffffffffffffffffffffffffffffffffff16908173ffffffffffffffffffffffffffffffffffffffff16815250508280611a3d90613328565b9350505b508080611a4d90613328565b915050611904565b5060008167ffffffffffffffff811115611a7257611a71612c7a565b5b604051908082528060200260200182016040528015611aa05781602001602082028036833780820191505090505b50905060005b82811015611b2957838181518110611ac157611ac0613130565b5b6020026020010151828281518110611adc57611adb613130565b5b602002602001019073ffffffffffffffffffffffffffffffffffffffff16908173ffffffffffffffffffffffffffffffffffffffff16815250508080611b2190613328565b915050611aa6565b5080945050505050919050565b60055481565b60008211611b7f576040517f08c379a0000000000000000000000000000000000000000000000000000000008152600401611b7690613494565b60405180910390fd5b60008111611bc2576040517f08c379a0000000000000000000000000000000000000000000000000000000008152600401611bb990613526565b60405180910390fd5b60006001600060045481526020019081526020016000209050338160000160006101000a81548173ffffffffffffffffffffffffffffffffffffffff021916908373ffffffffffffffffffffffffffffffffffffffff16021790555082816001018190555081816002018190555060018160040160006101000a81548160ff021916908315150217905550600660003373ffffffffffffffffffffffffffffffffffffffff1673ffffffffffffffffffffffffffffffffffffffff16815260200190815260200160002060045490806001815401808255809150506001900390600052602060002001600090919091909150556004543373ffffffffffffffffffffffffffffffffffffffff167ff59010ab8ad125eb066b36d59e1cab6585253483563b7cdc7069d8feced0abd58585604051611d00929190613546565b60405180910390a360046000815480929190611d1b90613328565b9190505550505050565b611d2d6128a2565b611d376000612929565b565b803373ffffffffffffffffffffffffffffffffffffffff166002600083815260200190815260200160002060000160009054906101000a900473ffffffffffffffffffffffffffffffffffffffff1673ffffffffffffffffffffffffffffffffffffffff1614611dde576040517f08c379a0000000000000000000000000000000000000000000000000000000008152600401611dd5906135e1565b60405180910390fd5b60006002600084815260200190815260200160002090508060030160009054906101000a900460ff16611e46576040517f08c379a0000000000000000000000000000000000000000000000000000000008152600401611e3d9061364d565b60405180910390fd5b60008160030160006101000a81548160ff021916908315150217905550505050565b6060600660008373ffffffffffffffffffffffffffffffffffffffff1673ffffffffffffffffffffffffffffffffffffffff168152602001908152602001600020805480602002602001604051908101604052809291908181526020018280548015611ef357602002820191906000526020600020905b815481526020019060010190808311611edf575b50505050509050919050565b6000600860009054906101000a900473ffffffffffffffffffffffffffffffffffffffff16905090565b600080600160008481526020019081526020016000206040518060a00160405290816000820160009054906101000a900473ffffffffffffffffffffffffffffffffffffffff1673ffffffffffffffffffffffffffffffffffffffff1673ffffffffffffffffffffffffffffffffffffffff16815260200160018201548152602001600282015481526020016003820180548060200260200160405190810160405280929190818152602001828054801561200357602002820191906000526020600020905b815481526020019060010190808311611fef575b505050505081526020016004820160009054906101000a900460ff161515151581525050905060005b81606001515181101561216d576000600260008460600151848151811061205657612055613130565b5b602002602001015181526020019081526020016000206040518060800160405290816000820160009054906101000a900473ffffffffffffffffffffffffffffffffffffffff1673ffffffffffffffffffffffffffffffffffffffff1673ffffffffffffffffffffffffffffffffffffffff16815260200160018201548152602001600282015481526020016003820160009054906101000a900460ff1615151515815250509050806060015180156121125750428160400151105b15612159576000836040015182604001514261212e919061318e565b61213891906131f1565b905080846020015161214a9190613222565b856121559190613264565b9450505b50808061216590613328565b91505061202c565b5050919050565b60016020528060005260406000206000915090508060000160009054906101000a900473ffffffffffffffffffffffffffffffffffffffff16908060010154908060020154908060040160009054906101000a900460ff16905084565b600060016000838152602001908152602001600020600301805490509050919050565b6000600760008373ffffffffffffffffffffffffffffffffffffffff1673ffffffffffffffffffffffffffffffffffffffff168152602001908152602001600020805490509050919050565b6000600660008373ffffffffffffffffffffffffffffffffffffffff1673ffffffffffffffffffffffffffffffffffffffff168152602001908152602001600020805490509050919050565b6060600760008373ffffffffffffffffffffffffffffffffffffffff1673ffffffffffffffffffffffffffffffffffffffff16815260200190815260200160002080548060200260200160405190810160405280929190818152602001828054801561231757602002820191906000526020600020905b815481526020019060010190808311612303575b50505050509050919050565b60008054906101000a900473ffffffffffffffffffffffffffffffffffffffff1681565b803373ffffffffffffffffffffffffffffffffffffffff166001600083815260200190815260200160002060000160009054906101000a900473ffffffffffffffffffffffffffffffffffffffff1673ffffffffffffffffffffffffffffffffffffffff16146123ec576040517f08c379a00000000000000000000000000000000000000000000000000000000081526004016123e3906130a4565b60405180910390fd5b60006001600084815260200190815260200160002090508060040160009054906101000a900460ff16612454576040517f08c379a000000000000000000000000000000000000000000000000000000000815260040161244b906133bc565b60405180910390fd5b60008160040160006101000a81548160ff021916908315150217905550505050565b803373ffffffffffffffffffffffffffffffffffffffff166002600083815260200190815260200160002060000160009054906101000a900473ffffffffffffffffffffffffffffffffffffffff1673ffffffffffffffffffffffffffffffffffffffff161461251b576040517f08c379a0000000000000000000000000000000000000000000000000000000008152600401612512906135e1565b60405180910390fd5b60006002600084815260200190815260200160002090506000600160008360010154815260200190815260200160002090508160030160009054906101000a900460ff161561259f576040517f08c379a0000000000000000000000000000000000000000000000000000000008152600401612596906136b9565b60405180910390fd5b8060040160009054906101000a900460ff166125f0576040517f08c379a00000000000000000000000000000000000000000000000000000000081526004016125e7906133bc565b60405180910390fd5b60018260030160006101000a81548160ff02191690831515021790555050505050565b61261b6128a2565b600073ffffffffffffffffffffffffffffffffffffffff168173ffffffffffffffffffffffffffffffffffffffff160361268d5760006040517f1e4fbdf70000000000000000000000000000000000000000000000000000000081526004016126849190613006565b60405180910390fd5b61269681612929565b50565b600080600160008481526020019081526020016000206040518060a00160405290816000820160009054906101000a900473ffffffffffffffffffffffffffffffffffffffff1673ffffffffffffffffffffffffffffffffffffffff1673ffffffffffffffffffffffffffffffffffffffff16815260200160018201548152602001600282015481526020016003820180548060200260200160405190810160405280929190818152602001828054801561277357602002820191906000526020600020905b81548152602001906001019080831161275f575b505050505081526020016004820160009054906101000a900460ff161515151581525050905060005b81606001515181101561289b57600060026000846060015184815181106127c6576127c5613130565b5b602002602001015181526020019081526020016000206040518060800160405290816000820160009054906101000a900473ffffffffffffffffffffffffffffffffffffffff1673ffffffffffffffffffffffffffffffffffffffff1673ffffffffffffffffffffffffffffffffffffffff16815260200160018201548152602001600282015481526020016003820160009054906101000a900460ff161515151581525050905080606001511561288757838061288390613328565b9450505b50808061289390613328565b91505061279c565b5050919050565b6128aa6129ef565b73ffffffffffffffffffffffffffffffffffffffff166128c8611eff565b73ffffffffffffffffffffffffffffffffffffffff1614612927576128eb6129ef565b6040517f118cdaa700000000000000000000000000000000000000000000000000000000815260040161291e9190613006565b60405180910390fd5b565b6000600860009054906101000a900473ffffffffffffffffffffffffffffffffffffffff16905081600860006101000a81548173ffffffffffffffffffffffffffffffffffffffff021916908373ffffffffffffffffffffffffffffffffffffffff1602179055508173ffffffffffffffffffffffffffffffffffffffff168173ffffffffffffffffffffffffffffffffffffffff167f8be0079c531659141344cd1fd0a4f28419497f9722a3daafe3b4186f6b6457e060405160405180910390a35050565b600033905090565b6000604051905090565b600080fd5b600080fd5b6000819050919050565b612a1e81612a0b565b8114612a2957600080fd5b50565b600081359050612a3b81612a15565b92915050565b600060208284031215612a5757612a56612a01565b5b6000612a6584828501612a2c565b91505092915050565b612a7781612a0b565b82525050565b6000602082019050612a926000830184612a6e565b92915050565b600073ffffffffffffffffffffffffffffffffffffffff82169050919050565b6000612ac382612a98565b9050919050565b612ad381612ab8565b8114612ade57600080fd5b50565b600081359050612af081612aca565b92915050565b60008060408385031215612b0d57612b0c612a01565b5b6000612b1b85828601612a2c565b9250506020612b2c85828601612ae1565b9150509250929050565b60008115159050919050565b612b4b81612b36565b82525050565b6000602082019050612b666000830184612b42565b92915050565b600060208284031215612b8257612b81612a01565b5b6000612b9084828501612ae1565b91505092915050565b60008060408385031215612bb057612baf612a01565b5b6000612bbe85828601612ae1565b9250506020612bcf85828601612a2c565b9150509250929050565b6000606082019050612bee6000830186612a6e565b612bfb6020830185612a6e565b612c086040830184612b42565b949350505050565b612c1981612ab8565b82525050565b6000608082019050612c346000830187612c10565b612c416020830186612a6e565b612c4e6040830185612a6e565b612c5b6060830184612b42565b95945050505050565b600080fd5b6000601f19601f8301169050919050565b7f4e487b7100000000000000000000000000000000000000000000000000000000600052604160045260246000fd5b612cb282612c69565b810181811067ffffffffffffffff82111715612cd157612cd0612c7a565b5b80604052505050565b6000612ce46129f7565b9050612cf08282612ca9565b919050565b600067ffffffffffffffff821115612d1057612d0f612c7a565b5b602082029050602081019050919050565b600080fd5b6000612d39612d3484612cf5565b612cda565b90508083825260208201905060208402830185811115612d5c57612d5b612d21565b5b835b81811015612d855780612d718882612a2c565b845260208401935050602081019050612d5e565b5050509392505050565b600082601f830112612da457612da3612c64565b5b8135612db4848260208601612d26565b91505092915050565b600060208284031215612dd357612dd2612a01565b5b600082013567ffffffffffffffff811115612df157612df0612a06565b5b612dfd84828501612d8f565b91505092915050565b600081519050919050565b600082825260208201905092915050565b6000819050602082019050919050565b612e3b81612ab8565b82525050565b6000612e4d8383612e32565b60208301905092915050565b6000602082019050919050565b6000612e7182612e06565b612e7b8185612e11565b9350612e8683612e22565b8060005b83811015612eb7578151612e9e8882612e41565b9750612ea983612e59565b925050600181019050612e8a565b5085935050505092915050565b60006020820190508181036000830152612ede8184612e66565b905092915050565b60008060408385031215612efd57612efc612a01565b5b6000612f0b85828601612a2c565b9250506020612f1c85828601612a2c565b9150509250929050565b600081519050919050565b600082825260208201905092915050565b6000819050602082019050919050565b612f5b81612a0b565b82525050565b6000612f6d8383612f52565b60208301905092915050565b6000602082019050919050565b6000612f9182612f26565b612f9b8185612f31565b9350612fa683612f42565b8060005b83811015612fd7578151612fbe8882612f61565b9750612fc983612f79565b925050600181019050612faa565b5085935050505092915050565b60006020820190508181036000830152612ffe8184612f86565b905092915050565b600060208201905061301b6000830184612c10565b92915050565b600082825260208201905092915050565b7f4f6e6c792070726f76696465722063616e2063616c6c20746869732066756e6360008201527f74696f6e00000000000000000000000000000000000000000000000000000000602082015250565b600061308e602483613021565b915061309982613032565b604082019050919050565b600060208201905081810360008301526130bd81613081565b9050919050565b7f5365727669636520697320616374697665000000000000000000000000000000600082015250565b60006130fa601183613021565b9150613105826130c4565b602082019050919050565b60006020820190508181036000830152613129816130ed565b9050919050565b7f4e487b7100000000000000000000000000000000000000000000000000000000600052603260045260246000fd5b7f4e487b7100000000000000000000000000000000000000000000000000000000600052601160045260246000fd5b600061319982612a0b565b91506131a483612a0b565b92508282039050818111156131bc576131bb61315f565b5b92915050565b7f4e487b7100000000000000000000000000000000000000000000000000000000600052601260045260246000fd5b60006131fc82612a0b565b915061320783612a0b565b925082613217576132166131c2565b5b828204905092915050565b600061322d82612a0b565b915061323883612a0b565b925082820261324681612a0b565b9150828204841483151761325d5761325c61315f565b5b5092915050565b600061326f82612a0b565b915061327a83612a0b565b92508282019050808211156132925761329161315f565b5b92915050565b60006060820190506132ad6000830186612c10565b6132ba6020830185612c10565b6132c76040830184612a6e565b949350505050565b6132d881612b36565b81146132e357600080fd5b50565b6000815190506132f5816132cf565b92915050565b60006020828403121561331157613310612a01565b5b600061331f848285016132e6565b91505092915050565b600061333382612a0b565b91507fffffffffffffffffffffffffffffffffffffffffffffffffffffffffffffffff82036133655761336461315f565b5b600182019050919050565b7f53657276696365206973206e6f74206163746976650000000000000000000000600082015250565b60006133a6601583613021565b91506133b182613370565b602082019050919050565b600060208201905081810360008301526133d581613399565b9050919050565b7f416c726561647920737562736372696265640000000000000000000000000000600082015250565b6000613412601283613021565b915061341d826133dc565b602082019050919050565b6000602082019050818103600083015261344181613405565b9050919050565b7f5072696365206d7573742062652067726561746572207468616e207a65726f00600082015250565b600061347e601f83613021565b915061348982613448565b602082019050919050565b600060208201905081810360008301526134ad81613471565b9050919050565b7f52656e6577616c20706572696f64206d7573742062652067726561746572207460008201527f68616e207a65726f000000000000000000000000000000000000000000000000602082015250565b6000613510602883613021565b915061351b826134b4565b604082019050919050565b6000602082019050818103600083015261353f81613503565b9050919050565b600060408201905061355b6000830185612a6e565b6135686020830184612a6e565b9392505050565b7f4f6e6c7920737562736372696265722063616e2063616c6c207468697320667560008201527f6e6374696f6e0000000000000000000000000000000000000000000000000000602082015250565b60006135cb602683613021565b91506135d68261356f565b604082019050919050565b600060208201905081810360008301526135fa816135be565b9050919050565b7f537562736372697074696f6e206973206e6f7420616374697665000000000000600082015250565b6000613637601a83613021565b915061364282613601565b602082019050919050565b600060208201905081810360008301526136668161362a565b9050919050565b7f537562736372697074696f6e20697320616c7265616479206163746976650000600082015250565b60006136a3601e83613021565b91506136ae8261366d565b602082019050919050565b600060208201905081810360008301526136d281613696565b905091905056fea2646970667358221220f424815e12f54e3079db9a2436ff8c66e7d3b383fcbf9adc48c9042b2a262d9364736f6c63430008140033",
  "linkReferences": {},
  "deployedLinkReferences": {}
}